:0300000002010FEB
:0C010F00787FE4F6D8FD758111020156DE
:0F036500010A00010900010B00010C0001080052
:04033B007FE87E03D6
:10033F00E4FDFCC3ED9FEE6480F8EC6480985015EB
:10034F00E4FBFA0BBB00010ABA03F8BBE8F50DBDDD
:05035F0000010C80DE2E
:010364002276
:10000300759850438E01438E0475D7B875D6FF4358
:050013008E10D2AC22AA
:06022600F511FB7D3CFF19
:10022C00EFC39D5068E4FEEE14602314603D24027D
:10023C007054EF75F003A42400F582E43400F583C8
:10024C00E5822EF582E43583F583EBF08038EF758B
:10025C00F003A42400F582E43400F583E5822EF546
:10026C0082E43583F583E510F0801BEF75F003A471
:10027C002400F582E43400F583E5822EF582E43522
:0D028C0083F583E511F00EBE039D0F8093F6
:010299002242
:10029A00E4F50DE4F50EE50D75F003A42400F582EE
:1002AA00E43400F583E582250EF582E43583F5838F
:1002BA00E0F50AE4F50FE50A30E705120375800355
:1002CA00120383E50A25E0F50A050FE50FC3940832
:1002DA0040E4050EE50EC3940340BB050DE50DC3CE
:0702EA00943C40AF020390B9
:1002F100120003E4F510F5117B327D3CFF12022C54
:1003010012029A12033B751032E412022612029A6B
:1003110012033BE4F51075113212022812029A12EF
:10032100033BE4F51012022612029A12033BD2AFEC
:0A03310020AFFD12029AD2AF80F651
:03002300020026B2
:10002600C0E0C0F0C083C082C0D075D000C000C0A0
:0B00360002C003C004C005C006C007E4
:100041002098030200F6AB99C298BB410AE50870FB
:10005100067508010200F6BB640BE508B4010675DC
:1000610008020200F6BB610BE508B402067508033D
:100071000200F6E508B403068B0905088077E50858
:10008100B404068B0B0508806CE508B405128B0CD3
:10009100E509650B6455650C6002805605088055BD
:1000A100E508C39406404BE50824FAFFE434FFFE5B
:1000B1007C007D0312019BAA07EA75F003A42400CA
:1000C100F582E43400F583E50824FAFFE434FFFE09
:1000D1007C007D031201F0E5822DF582E5833CF57C
:1000E10083EBF0EAB50B07750800C2AF800705087E
:0500F10080037508000A
:1000F600D007D006D005D004D003D002D000D0D08F
:09010600D082D083D0F0D0E032A9
:0B001800EF1FAC0670011E4C70F622BA
:0E037500D2907F017E001200180000C290227C
:0D038300D2900000C2907F017E00020018A1
:070390007F207E030200182C
:10011B000202F1E493A3F8E493A34003F68001F207
:10012B0008DFF48029E493A3F85407240CC8C333E5
:10013B00C4540F4420C8834004F456800146F6DFB4
:10014B00E4800B0102040810204080900365E47EDC
:10015B00019360BCA3FF543F30E509541FFEE493A9
:10016B00A360010ECF54C025E060A840B8E493A370
:10017B00FAE493A3F8E493A3C8C582C8CAC583CA9B
:10018B00F0A3C8C582C8CAC583CADFE9DEE780BE53
:010374000088
:10019B00BC000BBE0029EF8DF084FFADF022E4CC48
:1001AB00F875F008EF2FFFEE33FEEC33FCEE9DEC11
:1001BB00984005FCEE9DFE0FD5F0E9E4CEFD22ED57
:1001CB00F8F5F0EE8420D21CFEADF075F008EF2FA1
:1001DB00FFED33FD4007985006D5F0F222C398FD92
:0501EB000FD5F0EA222F
:1001F000C2D5EC30E709B2D5E4C39DFDE49CFCEE2A
:1002000030E715B2D5E4C39FFFE49EFE12019BC305
:10021000E49DFDE49CFC800312019B30D507C3E400
:060220009FFFE49EFE2298
:00000001FF
